{
  "transactions": [
    {
      "hash": "0x54284e8062318b828aa18811f57e5a0a89dab4db956dde4223ebdcdd8ab75b4d",
      "transactionType": "CALL",
      "contractName": null,
      "contractAddress": "0x45cbffefefaa427f163efbbea0b9296ed2678222",
      "function": "createCampaign(uint256,uint256,string,string)",
      "arguments": [
        "10000000000000000000",
        "1736081748",
        "Marathon Crowdfunder",
        "Sponsor me for running the nyc marathon"
      ],
      "transaction": {
        "from": "0xbac62d3233af0a4a8ce88afeb473e03e78026729",
        "to": "0x45cbffefefaa427f163efbbea0b9296ed2678222",
        "gas": "0x4408c",
        "value": "0x0",
        "input": "0xb63e0eb00000000000000000000000000000000000000000000000008ac7230489e8000000000000000000000000000000000000000000000000000000000000677a8154000000000000000000000000000000000000000000000000000000000000008000000000000000000000000000000000000000000000000000000000000000c000000000000000000000000000000000000000000000000000000000000000144d61726174686f6e2043726f776466756e646572000000000000000000000000000000000000000000000000000000000000000000000000000000000000002753706f6e736f72206d6520666f722072756e6e696e6720746865206e7963206d61726174686f6e00000000000000000000000000000000000000000000000000",
        "nonce": "0x18",
        "chainId": "0xaa36a7"
      },
      "additionalContracts": [],
      "isFixedGasLimit": false
    }
  ],
  "receipts": [
    {
      "status": "0x1",
      "cumulativeGasUsed": "0xc2e3e6",
      "logs": [],
      "logsBloom": "0x00000000000000000000000000000000000000000000000000000000000000000000000000000000000000000000000000000000000000000000000000000000000000000000000000000000000000000000000000000000000000000000000000000000000000000000000000000000000000000000000000000000000000000000000000000000000000000000000000000000000000000000000000000000000000000000000000000000000000000000000000000000000000000000000000000000000000000000000000000000000000000000000000000000000000000000000000000000000000000000000000000000000000000000000000000000",
      "type": "0x2",
      "transactionHash": "0x54284e8062318b828aa18811f57e5a0a89dab4db956dde4223ebdcdd8ab75b4d",
      "transactionIndex": "0x50",
      "blockHash": "0xcf90ba2e4b65ae9645cfa0b10af99feae2e05a307d265d116b14341aba1620c8",
      "blockNumber": "0x709855",
      "gasUsed": "0x31417",
      "effectiveGasPrice": "0x80791e120",
      "from": "0xbac62d3233af0a4a8ce88afeb473e03e78026729",
      "to": "0x45cbffefefaa427f163efbbea0b9296ed2678222",
      "contractAddress": null
    }
  ],
  "libraries": [],
  "pending": [],
  "returns": {},
  "timestamp": 1735476973,
  "chain": 11155111,
  "commit": "aec211e"
}